{
  "contractName": "Candidates",
  "abi": [
    {
      "inputs": [],
      "payable": false,
      "stateMutability": "nonpayable",
      "type": "constructor"
    },
    {
      "constant": true,
      "inputs": [],
      "name": "candidateCount",
      "outputs": [
        {
          "internalType": "uint256",
          "name": "",
          "type": "uint256"
        }
      ],
      "payable": false,
      "stateMutability": "view",
      "type": "function"
    },
    {
      "constant": true,
      "inputs": [
        {
          "internalType": "uint256",
          "name": "",
          "type": "uint256"
        }
      ],
      "name": "candidates",
      "outputs": [
        {
          "internalType": "uint256",
          "name": "votes",
          "type": "uint256"
        },
        {
          "internalType": "uint256",
          "name": "id",
          "type": "uint256"
        },
        {
          "internalType": "string",
          "name": "name",
          "type": "string"
        },
        {
          "internalType": "string",
          "name": "position",
          "type": "string"
        }
      ],
      "payable": false,
      "stateMutability": "view",
      "type": "function"
    },
    {
      "constant": true,
      "inputs": [],
      "name": "voterCount",
      "outputs": [
        {
          "internalType": "uint256",
          "name": "",
          "type": "uint256"
        }
      ],
      "payable": false,
      "stateMutability": "view",
      "type": "function"
    },
    {
      "constant": true,
      "inputs": [
        {
          "internalType": "string",
          "name": "",
          "type": "string"
        }
      ],
      "name": "voters",
      "outputs": [
        {
          "internalType": "bool",
          "name": "",
          "type": "bool"
        }
      ],
      "payable": false,
      "stateMutability": "view",
      "type": "function"
    },
    {
      "constant": true,
      "inputs": [],
      "name": "votingStartTime",
      "outputs": [
        {
          "internalType": "uint256",
          "name": "",
          "type": "uint256"
        }
      ],
      "payable": false,
      "stateMutability": "view",
      "type": "function"
    },
    {
      "constant": true,
      "inputs": [],
      "name": "votingTime",
      "outputs": [
        {
          "internalType": "uint256",
          "name": "",
          "type": "uint256"
        }
      ],
      "payable": false,
      "stateMutability": "view",
      "type": "function"
    },
    {
      "constant": false,
      "inputs": [
        {
          "internalType": "string",
          "name": "_voterHash",
          "type": "string"
        },
        {
          "components": [
            {
              "internalType": "uint256",
              "name": "votes",
              "type": "uint256"
            },
            {
              "internalType": "uint256",
              "name": "id",
              "type": "uint256"
            },
            {
              "internalType": "string",
              "name": "name",
              "type": "string"
            },
            {
              "internalType": "string",
              "name": "position",
              "type": "string"
            }
          ],
          "internalType": "struct Candidates.Candidate[]",
          "name": "_candidates",
          "type": "tuple[]"
        }
      ],
      "name": "voteForCandidates",
      "outputs": [],
      "payable": false,
      "stateMutability": "nonpayable",
      "type": "function"
    }
  ],
  "bytecode": "0x6080604052600080556000600155620151806003553480156200002157600080fd5b506200007b60016040518060400160405280600c81526020016b4a616b616e61204d76756c6560a01b815250604051806040016040528060098152602001681c1c995cda59195b9d60ba1b8152506200048560201b60201c565b620000d760026040518060400160405280600f81526020016e46726564646965204d65726375727960881b815250604051806040016040528060098152602001681c1c995cda59195b9d60ba1b8152506200048560201b60201c565b6200013160036040518060400160405280600d81526020016c4b61742056616c656e74696e6560981b815250604051806040016040528060098152602001681c1c995cda59195b9d60ba1b8152506200048560201b60201c565b6200018a60046040518060400160405280600c81526020016b4c75636965205368656c6c7960a01b815250604051806040016040528060098152602001681c1c995cda59195b9d60ba1b8152506200048560201b60201c565b620001e460056040518060400160405280600a8152602001694c61647920576869746560b01b81525060405180604001604052806016815260200160008051602062000d608339815191528152506200048560201b60201c565b6200023c60066040518060400160405280600881526020016722b4b739ba32b4b760c11b81525060405180604001604052806016815260200160008051602062000d608339815191528152506200048560201b60201c565b62000295600760405180604001604052806009815260200168456c6f6e204d75736b60b81b81525060405180604001604052806016815260200160008051602062000d608339815191528152506200048560201b60201c565b620002f860086040518060400160405280600e81526020016d52696368617264204d77616e7a6160901b81525060405180604001604052806011815260200170736f6369616c206163746976697469657360781b8152506200048560201b60201c565b6200035b60096040518060400160405280600e81526020016d4d61757265656e204b616d656e6560901b81525060405180604001604052806011815260200170736f6369616c206163746976697469657360781b8152506200048560201b60201c565b620003ba600a6040518060400160405280600e81526020016d4b656c76696e204b616d616e646560901b8152506040518060400160405280600d81526020016c636f6d6d756e636174696f6e7360981b8152506200048560201b60201c565b62000418600b6040518060400160405280600b81526020016a49616e204d7567616d626960a81b8152506040518060400160405280600f81526020016e185d591a5d1bdc8819d95b995c985b608a1b8152506200048560201b60201c565b6200047b600c6040518060400160405280601081526020016f4d697269656c6c65204b696d616e7a6960801b8152506040518060400160405280600f81526020016e185d591a5d1bdc8819d95b995c985b608a1b8152506200048560201b60201c565b42600255620005b0565b60008054600190810182556040805160808101825283815260208082018881528284018881526060840188905289875260048352939095208251815594519385019390935590518051919392620004e5926002850192909101906200050b565b5060608201518051620005039160038401916020909101906200050b565b505050505050565b828054600181600116156101000203166002900490600052602060002090601f016020900481019282601f106200054e57805160ff19168380011785556200057e565b828001600101855582156200057e579182015b828111156200057e57825182559160200191906001019062000561565b506200058c92915062000590565b5090565b620005ad91905b808211156200058c576000815560010162000597565b90565b6107a080620005c06000396000f3fe608060405234801561001057600080fd5b506004361061007d5760003560e01c80633477ee2e1161005b5780633477ee2e146100bd57806342169e48146100e057806353fa2e64146100e8578063a9a981a3146101085761007d565b80631cbe482d146100825780632019a608146100a05780632349a7b1146100a8575b600080fd5b61008a610110565b6040516100979190610621565b60405180910390f35b61008a610116565b6100bb6100b63660046104fa565b61011c565b005b6100d06100cb366004610563565b6101ed565b604051610097949392919061062f565b61008a610326565b6100fb6100f63660046104bd565b61032c565b6040516100979190610613565b61008a61034c565b60035481565b60025481565b600060058360405161012e9190610600565b9081526040519081900360200190205460ff169050801561014e57600080fd5b4260035460025401111561016157600080fd5b60016005846040516101739190610600565b908152604051908190036020019020805491151560ff19909216919091179055600180548101905560005b82518110156101e75760008382815181106101b557fe5b60209081029190910181015181015160009081526004909152604090208054600190810190915591909101905061019e565b50505050565b60046020908152600091825260409182902080546001808301546002808501805488519481161561010002600019011691909104601f81018790048702840187019097528683529295909491929183018282801561028c5780601f106102615761010080835404028352916020019161028c565b820191906000526020600020905b81548152906001019060200180831161026f57829003601f168201915b5050505060038301805460408051602060026001851615610100026000190190941693909304601f810184900484028201840190925281815294959493509083018282801561031c5780601f106102f15761010080835404028352916020019161031c565b820191906000526020600020905b8154815290600101906020018083116102ff57829003601f168201915b5050505050905084565b60015481565b805160208183018101805160058252928201919093012091525460ff1681565b60005481565b600082601f83011261036357600080fd5b8135610376610371826106a1565b61067a565b81815260209384019390925082018360005b838110156103b4578135860161039e888261040d565b8452506020928301929190910190600101610388565b5050505092915050565b600082601f8301126103cf57600080fd5b81356103dd610371826106c2565b915080825260208301602083018583830111156103f957600080fd5b610404838284610704565b50505092915050565b60006080828403121561041f57600080fd5b610429608061067a565b9050600061043784846104ac565b8252506020610448848483016104ac565b602083015250604082013567ffffffffffffffff81111561046857600080fd5b610474848285016103be565b604083015250606082013567ffffffffffffffff81111561049457600080fd5b6104a0848285016103be565b60608301525092915050565b80356104b781610746565b92915050565b6000602082840312156104cf57600080fd5b813567ffffffffffffffff8111156104e657600080fd5b6104f2848285016103be565b949350505050565b6000806040838503121561050d57600080fd5b823567ffffffffffffffff81111561052457600080fd5b610530858286016103be565b925050602083013567ffffffffffffffff81111561054d57600080fd5b61055985828601610352565b9150509250929050565b60006020828403121561057557600080fd5b60006104f284846104ac565b61058a816106fc565b82525050565b600061059b826106ea565b6105a581856106f7565b93506105b5818560208601610710565b9290920192915050565b60006105ca826106ea565b6105d481856106ee565b93506105e4818560208601610710565b6105ed8161073c565b9093019392505050565b61058a81610701565b600061060c8284610590565b9392505050565b602081016104b78284610581565b602081016104b782846105f7565b6080810161063d82876105f7565b61064a60208301866105f7565b818103604083015261065c81856105bf565b9050818103606083015261067081846105bf565b9695505050505050565b60405181810167ffffffffffffffff8111828210171561069957600080fd5b604052919050565b600067ffffffffffffffff8211156106b857600080fd5b5060209081020190565b600067ffffffffffffffff8211156106d957600080fd5b506020601f91909101601f19160190565b5190565b90815260200190565b919050565b151590565b90565b82818337506000910152565b60005b8381101561072b578181015183820152602001610713565b838111156101e75750506000910152565b601f01601f191690565b61074f81610701565b811461075a57600080fd5b5056fea365627a7a7231582072a7b1ba578b1c809975f3ee3cce6924a71f2d6419f4697ed2981b6aae353d016c6578706572696d656e74616cf564736f6c6343000510004061636164656d69637320616e6420726573656172636800000000000000000000",
  "source": "pragma solidity >0.5.0;\npragma experimental ABIEncoderV2;\n\ncontract Candidates {\n  uint public candidateCount = 0;\n  uint public voterCount = 0;\n  uint public votingStartTime;\n  uint public votingTime = 24 hours;\n\n  struct Candidate {\n    uint votes;\n    uint id;\n    string name;\n    string position;\n  }\n\n  mapping (uint => Candidate) public candidates;\n  mapping(string => bool) public voters;\n  \n  // event CandidateCreated(uint id, string name, string position);\n\n  constructor() public {\n    createCandidate(1, 'Jakana Mvule', 'president');\n    createCandidate(2, 'Freddie Mercury', 'president');\n    createCandidate(3, 'Kat Valentine', 'president');\n    createCandidate(4, 'Lucie Shelly', 'president');\n\n    createCandidate(5, 'Lady White', 'academics and research');\n    createCandidate(6, 'Einstein', 'academics and research');\n    createCandidate(7, 'Elon Musk', 'academics and research');\n\n    createCandidate(8, 'Richard Mwanza', 'social activities');\n    createCandidate(9, 'Maureen Kamene', 'social activities');\n\n    createCandidate(10, 'Kelvin Kamande', 'communcations');\n    \n    createCandidate(11, 'Ian Mugambi', 'auditor general');\n    createCandidate(12, 'Mirielle Kimanzi', 'auditor general');\n    votingStartTime = block.timestamp;\n  }\n\n  // TODO: add modifier — only admins should be able to do this\n  function createCandidate(uint _id, string memory _name, string memory _position) private {\n    candidateCount++;\n    candidates[_id] = Candidate(0, _id, _name, _position);\n  }\n\n  function voteForCandidates(string memory _voterHash, Candidate[] memory _candidates) public {\n    bool hasVoted = voters[_voterHash];\n    require(!hasVoted);\n    require((votingStartTime+votingTime) <= block.timestamp);\n    voters[_voterHash] = true;\n    voterCount++;\n    \n    for (uint i = 0; i < _candidates.length; i++) {\n      uint candidateId = _candidates[i].id;\n      candidates[candidateId].votes++;\n    }\n  }\n\n  // TODO: add modifier — only admins should be able to do this\n  // function addManyCandidates(Candidate[] memory _candidates) public {\n  //   for (uint i = 0; i < _candidates.length; i++) {\n  //     Candidate memory candidate  = _candidates[0];\n  //     createCandidate(candidate.id, candidate.name, candidate.position);\n  //     emit CandidateCreated(candidate.id, candidate.name, candidate.position);\n  //   }\n  // }\n\n  // function viewCandidate(uint _id) external view returns(Candidate memory) {\n  //   return candidates[_id];\n  // }\n}",
  "sourcePath": "/Users/njeringigi/CMU/sem-2/bitcoin_and_cryptocurrencies/project/DigiVote/node-backend-2/contracts/Candidates.sol",
  "compiler": {
    "name": "solc",
    "version": "0.5.16+commit.9c3226ce.Emscripten.clang"
  },
  "schemaVersion": "3.3.4",
  "updatedAt": "2021-03-16T01:28:46.638Z",
  "networkType": "ethereum",
  "devdoc": {
    "methods": {}
  },
  "userdoc": {
    "methods": {}
  }
}