{
  "contractName": "Votes",
  "abi": [
    {
      "constant": false,
      "inputs": [],
      "name": "voteForCandidates",
      "outputs": [],
      "payable": false,
      "stateMutability": "nonpayable",
      "type": "function"
    }
  ],
  "bytecode": "0x608060405260008055348015601357600080fd5b50606c8060216000396000f3fe6080604052348015600f57600080fd5b506004361060285760003560e01c8063b671be2b14602d575b600080fd5b60336035565b005b56fea265627a7a723158207e731f9efa6a85c75aff3832053b16a94e8f410c01bee5435be6d6be32dd86fb64736f6c63430005100032",
  "source": "pragma solidity >0.5.0;\n\ncontract Votes {\n  uint voterCount = 0;\n  uint votingStartTime;\n\n\n  // TODO: add a modifier so only valid voters can vote\n  function voteForCandidates() public {\n\n  }\n}",
  "sourcePath": "/Users/njeringigi/CMU/sem-2/bitcoin_and_cryptocurrencies/project/DigiVote/node-backend-2/contracts/Votes.sol",
  "compiler": {
    "name": "solc",
    "version": "0.5.16+commit.9c3226ce.Emscripten.clang"
  },
  "schemaVersion": "3.3.4",
  "updatedAt": "2021-03-15T11:19:48.845Z",
  "devdoc": {
    "methods": {}
  },
  "userdoc": {
    "methods": {}
  }
}